{
  "_format": "hh-sol-artifact-1",
  "contractName": "VeriCreditRegistry",
  "sourceName": "contracts/VeriCreditRegistry.sol",
  "abi": [
    {
      "anonymous": false,
      "inputs": [
        {
          "indexed": true,
          "internalType": "bytes32",
          "name": "identityHash",
          "type": "bytes32"
        },
        {
          "indexed": false,
          "internalType": "uint256",
          "name": "aiRiskScore",
          "type": "uint256"
        },
        {
          "indexed": false,
          "internalType": "uint256",
          "name": "ahpScore",
          "type": "uint256"
        },
        {
          "indexed": false,
          "internalType": "bool",
          "name": "humanConsensusUsed",
          "type": "bool"
        },
        {
          "indexed": false,
          "internalType": "bytes32",
          "name": "evidenceHash",
          "type": "bytes32"
        },
        {
          "indexed": false,
          "internalType": "address",
          "name": "reporter",
          "type": "address"
        },
        {
          "indexed": false,
          "internalType": "uint256",
          "name": "timestamp",
          "type": "uint256"
        }
      ],
      "name": "VerificationRecorded",
      "type": "event"
    },
    {
      "inputs": [
        {
          "internalType": "bytes32",
          "name": "identityHash",
          "type": "bytes32"
        },
        {
          "internalType": "uint256",
          "name": "aiRiskScore",
          "type": "uint256"
        },
        {
          "internalType": "uint256",
          "name": "ahpScore",
          "type": "uint256"
        },
        {
          "internalType": "bool",
          "name": "humanConsensusUsed",
          "type": "bool"
        },
        {
          "internalType": "bytes32",
          "name": "evidenceHash",
          "type": "bytes32"
        }
      ],
      "name": "recordVerification",
      "outputs": [],
      "stateMutability": "nonpayable",
      "type": "function"
    },
    {
      "inputs": [
        {
          "internalType": "bytes32",
          "name": "",
          "type": "bytes32"
        }
      ],
      "name": "records",
      "outputs": [
        {
          "internalType": "bytes32",
          "name": "identityHash",
          "type": "bytes32"
        },
        {
          "internalType": "uint256",
          "name": "aiRiskScore",
          "type": "uint256"
        },
        {
          "internalType": "uint256",
          "name": "ahpScore",
          "type": "uint256"
        },
        {
          "internalType": "bool",
          "name": "humanConsensusUsed",
          "type": "bool"
        },
        {
          "internalType": "bytes32",
          "name": "evidenceHash",
          "type": "bytes32"
        },
        {
          "internalType": "uint256",
          "name": "timestamp",
          "type": "uint256"
        },
        {
          "internalType": "address",
          "name": "reporter",
          "type": "address"
        }
      ],
      "stateMutability": "view",
      "type": "function"
    }
  ],
  "bytecode": "0x608060405234801561001057600080fd5b50610674806100206000396000f3fe608060405234801561001057600080fd5b50600436106100365760003560e01c806301e647251461003b578063a8a1412014610071575b600080fd5b61005560048036038101906100509190610301565b61008d565b60405161006897969594939291906103b2565b60405180910390f35b61008b60048036038101906100869190610479565b6100fc565b005b60006020528060005260406000206000915090508060000154908060010154908060020154908060030160009054906101000a900460ff16908060040154908060050154908060060160009054906101000a900473ffffffffffffffffffffffffffffffffffffffff16905087565b6064841115610140576040517f08c379a000000000000000000000000000000000000000000000000000000000815260040161013790610551565b60405180910390fd5b6064831115610184576040517f08c379a000000000000000000000000000000000000000000000000000000000815260040161017b906105bd565b60405180910390fd5b6040518060e0016040528086815260200185815260200184815260200183151581526020018281526020014281526020013373ffffffffffffffffffffffffffffffffffffffff1681525060008087815260200190815260200160002060008201518160000155602082015181600101556040820151816002015560608201518160030160006101000a81548160ff0219169083151502179055506080820151816004015560a0820151816005015560c08201518160060160006101000a81548173ffffffffffffffffffffffffffffffffffffffff021916908373ffffffffffffffffffffffffffffffffffffffff160217905550905050847f87cdca2030e69b7a01c3b52c792af29cbd96ef60fd88f01e34ed083a317fe2248585858533426040516102b7969594939291906105dd565b60405180910390a25050505050565b600080fd5b6000819050919050565b6102de816102cb565b81146102e957600080fd5b50565b6000813590506102fb816102d5565b92915050565b600060208284031215610317576103166102c6565b5b6000610325848285016102ec565b91505092915050565b610337816102cb565b82525050565b6000819050919050565b6103508161033d565b82525050565b60008115159050919050565b61036b81610356565b82525050565b600073ffffffffffffffffffffffffffffffffffffffff82169050919050565b600061039c82610371565b9050919050565b6103ac81610391565b82525050565b600060e0820190506103c7600083018a61032e565b6103d46020830189610347565b6103e16040830188610347565b6103ee6060830187610362565b6103fb608083018661032e565b61040860a0830185610347565b61041560c08301846103a3565b98975050505050505050565b61042a8161033d565b811461043557600080fd5b50565b60008135905061044781610421565b92915050565b61045681610356565b811461046157600080fd5b50565b6000813590506104738161044d565b92915050565b600080600080600060a08688031215610495576104946102c6565b5b60006104a3888289016102ec565b95505060206104b488828901610438565b94505060406104c588828901610438565b93505060606104d688828901610464565b92505060806104e7888289016102ec565b9150509295509295909350565b600082825260208201905092915050565b7f61695269736b53636f726520302e2e3130300000000000000000000000000000600082015250565b600061053b6012836104f4565b915061054682610505565b602082019050919050565b6000602082019050818103600083015261056a8161052e565b9050919050565b7f61687053636f726520302e2e3130300000000000000000000000000000000000600082015250565b60006105a7600f836104f4565b91506105b282610571565b602082019050919050565b600060208201905081810360008301526105d68161059a565b9050919050565b600060c0820190506105f26000830189610347565b6105ff6020830188610347565b61060c6040830187610362565b610619606083018661032e565b61062660808301856103a3565b61063360a0830184610347565b97965050505050505056fea2646970667358221220dfe749e011378de9dbea5e4a6826e87bb42952b6474bd24142448644c3a7270164736f6c63430008140033",
  "linkReferences": {},
  "deployedLinkReferences": {}
}